{
  "contractName": "ContractMath",
  "abi": [
    {
      "constant": true,
      "inputs": [
        {
          "name": "x",
          "type": "uint256"
        }
      ],
      "name": "fact",
      "outputs": [
        {
          "name": "",
          "type": "uint256"
        }
      ],
      "payable": false,
      "stateMutability": "view",
      "type": "function"
    },
    {
      "constant": true,
      "inputs": [
        {
          "name": "arr_",
          "type": "uint64[]"
        }
      ],
      "name": "sort_array",
      "outputs": [
        {
          "name": "",
          "type": "uint64[]"
        }
      ],
      "payable": false,
      "stateMutability": "pure",
      "type": "function"
    }
  ],
  "bytecode": "0x608060405234801561001057600080fd5b50610371806100206000396000f30060806040526004361061004c576000357c0100000000000000000000000000000000000000000000000000000000900463ffffffff1680630b95d22814610051578063e70e52ae14610092575b600080fd5b34801561005d57600080fd5b5061007c6004803603810190808035906020019092919050505061014d565b6040518082815260200191505060405180910390f35b34801561009e57600080fd5b506100f660048036038101908080359060200190820180359060200190808060200260200160405190810160405280939291908181526020018383602002808284378201915050505050509192919290505050610178565b6040518080602001828103825283818151815260200191508051906020019060200280838360005b8381101561013957808201518184015260208101905061011e565b505050509050019250505060405180910390f35b600060018210151561016e576101656001830361014d565b82029050610173565b600190505b919050565b606060006060600080600086519450846040519080825280602002602001820160405280156101b65781602001602082028038833980820191505090505b509350600092505b8483101561021d5786838151811015156101d457fe5b9060200190602002015184848151811015156101ec57fe5b9060200190602002019067ffffffffffffffff16908167ffffffffffffffff168152505082806001019350506101be565b600092505b60018503831015610338576001830191505b8482101561032b57838381518110151561024a57fe5b9060200190602002015167ffffffffffffffff16848381518110151561026c57fe5b9060200190602002015167ffffffffffffffff16101561031e57838381518110151561029457fe5b90602001906020020151905083828151811015156102ae57fe5b9060200190602002015184848151811015156102c657fe5b9060200190602002019067ffffffffffffffff16908167ffffffffffffffff16815250508084838151811015156102f957fe5b9060200190602002019067ffffffffffffffff16908167ffffffffffffffff16815250505b8180600101925050610234565b8280600101935050610222565b83955050505050509190505600a165627a7a723058209484130b005937ab2dff17fab031acc563d1071a8acc3e5f0c6ebd5b316e587d0029",
  "source": "pragma solidity 0.4.24;\n\n\ncontract ContractMath{\n\n\tfunction fact(uint x)public constant returns(uint){\n\n\t\tif (x >= 1)\n\t\treturn x*fact(x-1);\n\t\telse\n\t\treturn 1;\n\t}\n\n\t/* function squarert(uint x)public pure returns (uint y) {\n\n\t\tuint z = (x + 1) / 2;\n\t\ty = x;\n\t\twhile (z < y) {\n\t\t\ty = z;\n\t\t\tz = (x / z + z) / 2;\n\t\t}\n\t\treturn y;\n\t\t} */\n\n\t\tfunction sort_array(uint64[] arr_)public pure returns (uint64 [] )\n\t\t{\n\t\t\tuint256 l = arr_.length;\n\t\t\tuint64[] memory arr = new uint64[] (l);\n\n\t\t\tfor(uint i=0;i<l;i++)\n\t\t\t{\n\t\t\t\tarr[i] = arr_[i];\n\t\t\t}\n\n\t\t\tfor(i =0;i<l-1;i++)\n\t\t\t{\n\t\t\t\tfor(uint j =i+1;j<l;j++)\n\t\t\t\t{\n\t\t\t\t\tif(arr[j]<arr[i])\n\t\t\t\t\t{\n\t\t\t\t\t\tuint64 temp= arr[i];\n\t\t\t\t\t\tarr[i]=arr[j];\n\t\t\t\t\t\tarr[j] = temp;\n\n\t\t\t\t\t}\n\n\t\t\t\t}\n\t\t\t}\n\n\t\t\treturn arr;\n\t\t}\n\n\n\t}",
  "sourcePath": "/home/light/Code/soliditycode/contracts/ContractMath.sol",
  "compiler": {
    "name": "solc",
    "version": "0.4.24+commit.e67f0147.Emscripten.clang"
  },
  "schemaVersion": "2.0.0",
  "updatedAt": "2018-06-07T05:44:25.011Z"
}