{
  "contractName": "ContractMath",
  "abi": [
    {
      "constant": true,
      "inputs": [
        {
          "name": "x",
          "type": "uint256"
        }
      ],
      "name": "fact",
      "outputs": [
        {
          "name": "",
          "type": "uint256"
        }
      ],
      "payable": false,
      "stateMutability": "view",
      "type": "function"
    }
  ],
  "bytecode": "0x608060405234801561001057600080fd5b5060d58061001f6000396000f300608060405260043610603f576000357c0100000000000000000000000000000000000000000000000000000000900463ffffffff1680630b95d228146044575b600080fd5b348015604f57600080fd5b50606c600480360381019080803590602001909291905050506082565b6040518082815260200191505060405180910390f35b6000600182101515609f576097600183036082565b8202905060a4565b600190505b9190505600a165627a7a72305820cb264c95d3a18ab9fbcf1c10735f34cb655928b56dc55fd312d25f3c505a420b0029",
  "source": "pragma solidity 0.4.24;\n\n\ncontract ContractMath{\n\n\tfunction fact(uint x)public constant returns(uint){\n\n\t\tif (x >= 1)\n\t\treturn x*fact(x-1);\n\t\telse\n\t\treturn 1;\n\t}\n}",
  "sourcePath": "/home/light/Code/soliditycode/contracts/ContractMath.sol",
  "compiler": {
    "name": "solc",
    "version": "0.4.24+commit.e67f0147.Emscripten.clang"
  },
  "schemaVersion": "2.0.0",
  "updatedAt": "2018-06-07T04:49:45.097Z"
}